:020000041000EA
:10000000002008205D0100101B0100101D010010E0
:100010001101001011010010110100101101001058
:100020001901001019010010190100101F01001022
:10003000110100101901001021010010230100100E
:100040001101001011010010110100101101001028
:100050001101001011010010110100101101001018
:100060001101001011010010110100101101001008
:1000700011010010110100101101001011010010F8
:1000800011010010110100101101001011010010E8
:1000900011010010110100101101001011010010D8
:1000A00011010010110100101101001011010010C8
:1000B00011010010110100101101001011010010B8
:1000C00011010010110100101101001011010010A8
:1000D0001101001011010010110100101101001098
:1000E0001101001011010010110100101101001088
:1000F0001101001011010010110100101101001078
:100100001101001011010010110100101101001067
:10011000EFF30580103800BE00BE00BE00BE00BE7A
:1001200000BE00BEF2EB8871DCCD0C10FCCD0C10D3
:10013000A001001090A31AE7D3DEFFFF42012110B7
:10014000FF01000034370E00793512AB4FF000008C
:100150001E49086006C881F3088810474FF05040D8
:10016000006810B14FF00000F2E70DA40ECC00299A
:1001700002D000F012F8F9E71549164A002000E015
:1001800001C19142FCD11449884714498847144958
:10019000884700BEFDE701C901C29A42FBD3704700
:1001A000FCCD0C1070010020E06B01206C380E10AB
:1001B00000000820000008206C380E1000100820F5
:1001C00000100820000000007047000008ED00E06B
:1001D000E06B012098EE0520959509101113001091
:1001E00059950910F8B500BF064B0749C91A89107F
:1001F00048BF0131491003D0044B0BB101481847E7
:10020000704700BFE06B0120E06B012000000000A0
:1002100008B5054B1BB105490548AFF30080BDE8A3
:100220000840FFF7E1BF00BF00000000F8DC052038
:10023000107B0A107501002005120020690E0020B5
:10024000B5440410F574002061770020217300206C
:10025000E10300105D040010C9620010F90D0020D8
:100260008D860020318600204D850020A45D012070
:10027000A05D012001350210B45D01200494052029
:1002800038E70520D4E70520213C0410D96600108A
:10029000DC9C0520C06F012094D00520985D0120D2
:1002A000945D0120F9630010852F0710B8680520C0
:1002B000B86705209C5D0120110300108515002002
:1002C000006C01207D700910A90A0310FD3F021087
:1002D00071010020190300102103001029030010F0
:1002E000310300106D03001099030010A86705206A
:1002F000AC67052083E90520605D012065030010DF
:100300002AE70520B0670520B467052039030010EF
:1003100008B597F03DFE08BD08B596F0C9FB08BDCD
:1003200008B596F09DFB08BD08B596F0ADFB08BD7D
:1003300008B596F0E3FB08BD38B1084B01EB41016D
:1003400003EBC103C3F8D8207047054B01EB410113
:1003500003EBC103C3F8D820704700BF0000305042
:100360000000205090FBF1F0704700BFF8B5044644
:100370000D4616461F4696F011FD50B932463B46D3
:100380002046294696F0CEFC003818BF0120404296
:10039000F8BD0120F8BD00BF704700BF002300B5C5
:1003A000DB8A87B0002242E800F2520254BF1021DB
:1003B000042145F24730984740220346052101A811
:1003C0009847052808D1019B402B05D10298C0F31E
:1003D000062007B05DF804FB6FF00F00F9E700BFDF
:1003E000094B4FF0504203EB401301205B680021A2
:1003F0001F2B92BF52689268203B984010400038F3
:1004000018BF0120704700BF30270B1070B5104E89
:10041000044633780D469A0716D4DB070FD40D4BEC
:100420001B5D13F0970F03D00B4A13680133136061
:100430000D2C02D10122084B1A60204670BD2946BE
:100440002046A7F055FAEAE732F056FB3378E4E7A6
:10045000ACEB0520F9C90C10209C052010B5044612
:10046000007828B90EE00021FFF7D0FF207848B1CE
:1004700014F8013F002BF6D10121FFF7C7FF2078C8
:100480000028F5D1BDE81040024B1B6898689EF02B
:100490005FBA00BF886A012008B588F041F91248A8
:1004A000FFF7DCFF0EA1D1E9000194F033FE13F059
:1004B0005DFC1BF017F80D4B93F8F6205AB113F0C2
:1004C0007FFC4FF48072002109489EF07DFDBDE85D
:1004D000084043F0A5BB1A711CF03AFCEFE700BFDF
:1004E000404B4C0000000000107B0A10006C012003
:1004F00098D50520044A054B10681B68C01A48BFF0
:1005000000F58070704700BF849205208892052016
:100510002DE9F843002406460F46DFF89081A7F046
:100520009FFA58F82630022B03D9304614F040FECB
:1005300038BB304614F0EAFD0028F0DD3EB99228C1
:100540002AD0932865D0942855D1594C25E0A0F1A4
:100550000803052B19D801A252F823F0ED0500106D
:10056000BB050010830500108B0500108B050010E3
:100570001F0500104F4B1B78002BD0D04E48FFF7C3
:100580006DFF00233B70BDE8F883C5B20134FF2C3A
:1005900035DC07F8015BC2E7484C214638469FF03E
:1005A00027FC444B1B78002BEDD02046FFF756FF6D
:1005B000BDE8F8434048FFF751BF2025DFF8F4902D
:1005C00001E0A307ABD00134FF2C02DD3C4806F06C
:1005D00083F807F8015B002EF3D199F80030002B67
:1005E000EFD001212020FFF711FFEAE7002C96D081
:1005F000013C013F93E79A2807D1324CCDE73048C0
:1006000006F06AF807F8015B89E79B2803D12E4CB6
:10061000C3E72E4CC1E79C2801D12D4CBDE79128A2
:1006200009D095283FD096283BD0972837D09828D6
:1006300003D1284CB1E7284CAFE799282DD0A0F181
:100640000803052B19D801A252F823F06506001003
:10065000BB050010830500107B0600107B06001010
:1006600075050010002C3FF45AAF124B1B78002B7D
:10067000BED01A48FFF7F2FEBAE7194BC5B21B5CB1
:1006800013F0970F82D00B4B1B78002B3FF47EAFFB
:1006900001212846FFF7BAFE78E7124C7DE7124C9D
:1006A0007BE7124C79E7124C77E700BF5C97052097
:1006B0005C7B0A10085E012028D30A10387B0A10E0
:1006C000747B0A10487B0A10647B0A10547B0A1062
:1006D0003C7B0A10016E0120016D0120887B0A100D
:1006E000F9C90C10416E0120C16D0120816D0120FE
:1006F000416D012070B50146044612489FF09AFAF8
:10070000F0B120469FF050FC431EB3F5FF7F17D891
:100710000D4D6FF001012A4640F2FF13091A834282
:1007200004D0565C013B02F8016DF8E7214605480C
:100730009FF05EFB002315F8012D0AB12B70FAE73C
:1007400070BD00BFC0D70520C0D9052010B501205D
:1007500032F084FAA6F0F4FF431CF8D004460020DF
:1007600032F07CFA204610BD10B50446007830B156
:100770000021A7F0BDF814F8010F0028F8D1BDE85A
:100780001040024B1B6898689EF0E2B8886A01200E
:100790002DE9F04F824B834FD3F8008097F86630F5
:1007A0007C7C9DB043B1502C06D8C8F15105C8F1EE
:1007B000A206C8F1F30308E00134A4EB0805C8EB76
:1007C000440604EB4404A4EB08030DF12009764928
:1007D000484604939FF00CFB48469FF0E5FB0A2334
:1007E00005EB080248440093D31705F06DFD6F49EF
:1007F00048469EF05DFC6E48FFF730FE6C489FF067
:10080000D3FB4FF0000A8146D046049BCDF80CA0E4
:10081000013BCDF818A00593FFF798FF09283DD1BB
:1008200064490BA89FF0E4FA7A79023A062A3BD889
:10083000DFE802F0040D1E3A3A3A290009F00102FD
:10084000B9F1000FB8BF5242C2F1020208E0032220
:1008500099FBF2F202EB4202A9EB0202C2F103029F
:10086000002102F170030DEB030202F8441C1BE0AF
:10087000D9F1000101F0030109F0030258BF4A4217
:10088000C2F10402ECE7D9F1000101F0070109F01F
:10089000070258BF4A42C2F10802E1E74FF00003E5
:1008A0008DF82C008DF82D309DF82C301D2B22D882
:1008B000032B40F224841A1F192A00F28183DFE8F7
:1008C00012F01E0196027F037F034F007F03450055
:1008D00043007F0345001B027F037F037F037F03E9
:1008E000FE007F03F7017F037F03B2027F037F03D4
:1008F0007F037F035A01A3F17F02D1B21D2900F2C9
:100900005F831D2A00F25C83DFE812F0350171027B
:100910008D02D900F900F6015A03D2011E005A03D4
:100920005A035A035A035A035A035A035A035A03DF
:100930001002170219021B021D024B025202590239
:100940006002670269026B02194CE2E118489FF0ED
:100950002BFBFE2800F2EA831548FFF7CBFEE5E308
:10096000B9F1000F40F3CB83114B09F1FF34E318C9
:100970001A781AB15A7803F8012BF9E7049B4B4512
:1009800003D04E4501D04D4518D1082032F0B4F8BF
:100990000948FFF7E9FE08A8FFF7E6FE12E000BFEE
:1009A000689C0520006C0120EDDD0A10000A0B1088
:1009B00098D50520F0DD0A10F9DD0A100021082085
:1009C000FFF724FDB9F10109D8D1DFF8C0A2DFF8A3
:1009D000C0B2DAF8003098689DF0BAFF052034F014
:1009E00023FCAC48FFF7C0FEA9489FF0DDFA48455C
:1009F00033D900211BF8010BFFF708FD059B4B4580
:100A000005D0731E4B4502D06B1E4B4511D1A0483B
:100A10009FF0CAFA0138484505D19F48FFF7A4FE68
:100A20009E48FFF7A1FE059B4B4505D0731E4B4525
:100A300002D06B1E4B450DD195489FF0B5FA013899
:100A4000484507D900219BF80000A6F051FF9348C4
:100A5000FFF78AFE09F10109C6E7DAF80030986865
:100A60009DF076FF8A489FF09FFA8146A14517DDE9
:100A7000049B994503D0B14501D0A94509D108206F
:100A800032F03AF88648FFF76FFE08A8FFF76CFED1
:100A900003E000210820FFF7B9FC09F1FF39E5E781
:100AA000DAF80030A14698689DF052FF784B93F831
:100AB00000A0BAF1000A18BF4FF0010A1FE3B9F114
:100AC000000F40F31483049B994503D0B14501D036
:100AD000A94509D1082032F00FF87148FFF744FE0C
:100AE00008A8FFF741FE03E001210820FFF78EFC74
:100AF0004FF0010A09F1FF39CDF80CA0FFE2644C78
:100B000020469FF051FA484540F2F982012114F83D
:100B10000900FFF77BFC049B03F1FF3ACA4505D0AF
:100B2000731E4B4502D06B1E4B4510D158489FF0A9
:100B30003BFA0138814505D15748FFF715FE574864
:100B4000FFF712FECA4505D0731E4B4502D06B1E3F
:100B50004B450DD14E489FF027FA0138814507D209
:100B60004C4400216078A6F0C3FE4C48FFF7FCFD22
:100B700009F10109BDE0464C20469FF015FA4845B1
:100B800040F2BD8209EB040003781BB1437800F802
:100B9000013BF9E74C46B4B1049B9C4203D0B442FC
:100BA00001D0AC4209D1082031F0A6FF3C48FFF744
:100BB000DBFD08A8FFF7D8FD03E000210820FFF7C0
:100BC00025FC013CE7E7A246304CDFF8C4B02368BF
:100BD00098689DF0BDFE052034F026FB2D48FFF7F8
:100BE000C3FD2B489FF0E0F9504533D900211BF895
:100BF000010BFFF70BFC059B534505D0731E5345B6
:100C000002D06B1E534511D121489FF0CDF9013818
:100C1000504505D12048FFF7A7FD2048FFF7A4FD68
:100C2000059B534505D0731E534502D06B1E53459B
:100C30000DD117489FF0B8F90138504507D9002168
:100C40009BF80000A6F054FE1448FFF78DFD0AF152
:100C5000010AC6E7236898689DF07AFE0C489FF069
:100C6000A3F90446A1453FDA049B9C4203D0B44259
:100C700001D0AC4216D1082031F03EFF0848FFF702
:100C800073FD08A8FFF770FD10E000BF886A01201F
:100C900098D50520FEDD0A10F7DD0A1084F90A1048
:100CA000F9DD0A1000210820FFF7B0FB013CD9E76D
:100CB000B9F1000F40F32082A4489FF075F9039B1F
:100CC000814508BF43F001030393049B4B4517D1B3
:100CD000082031F011FF9E48FFF746FD08A8FFF7F6
:100CE00043FDB9F10109F0D19A4B1B6898689DF05A
:100CF0002FFE4FF0010A02E2039B83F00103F9E1AA
:100D00004E45E5D04D45E3D000210820FFF77EFB9E
:100D1000E7E78E489FF048F94845E5D914F80900FF
:100D20000021FFF773FB09F10109F2E797F80131A0
:100D3000002B00F0E481884954E0884952E088495A
:100D400050E088494EE097F841B1BBF1000F01D067
:100D5000854947E07F4C8548FFF706FD2368986882
:100D60009DF0F6FD97F866304BB1814B186822F084
:100D70009FFA804BA3F800B07F4BA3F800B000218E
:100D80007E48A6F0CDFC002803DB7D48A6F04CFD94
:100D900002E07C48FFF762FB236898689DF0D8FD6D
:100DA000ADE197F88131002B00F0A981764919E077
:100DB00097F8C131002B00F0A281744912E097F836
:100DC0000132002B00F09B8171490BE097F8413212
:100DD000002B00F094816F4904E06F4902E06F49F5
:100DE00000E06F490DF12D009FF002F887E1BAF1A4
:100DF000000F40F08481069B6A4C63B104EB08004D
:100E00009FF0D2F808F101031844235C1BB1B0F540
:100E1000FF7F98BF80464D4804EB08019EF0E8FF35
:100E2000012306931CE0BAF1000F40F06881B8F18D
:100E3000000F05D1454B83F80080CDF818800FE0F6
:100E40005849A8F10208B8F1000F05DD08F1FF3399
:100E5000CA5C0AB19846F6E73C4841449EF0C8FF98
:100E600097F8E83083B397F866306BB337489FF054
:100E70009BF87B7C404CB0FBF3F04B4B0230B3F95A
:100E80000020B4F9003002FB0033484AB2F90020D8
:100E9000934219D3364B186822F00AFA0021354BD9
:100EA000364819802180A6F03BFC0028404805DB2D
:100EB000FFF75AFC3248A6F0B7FC29E0FFF754FCD4
:100EC0003048FFF7CBFA23E04C46B4B1049B9C4278
:100ED00003D0B44201D0AC4209D1082031F00CFE5D
:100EE0001B48FFF741FC08A8FFF73EFC03E0002188
:100EF0000820FFF78BFA013CE7E7164B1B68986860
:100F00009DF026FD052034F08FF92A48FFF72CFCD0
:100F10000E489FF049F804460C48FFF79FFA049BDF
:100F2000A34203D0A64201D0A54205D12248FFF733
:100F30001BFC2248FFF718FC064B1B6898689DF0C5
:100F400007FD02489FF030F88146D8E098D505208B
:100F5000F9DD0A10886A0120016D012003DE0A1004
:100F600009DE0A1010DE0A10416D012052FA0A1043
:100F700074D105202EE7052030E7052017DE0A1082
:100F8000102F0B1021DE0A10816D0120C16D012090
:100F9000016E0120416E012024DE0A102FDE0A10AE
:100FA00040DE0A10C0D705206CE90520D4E70520F3
:100FB000D3EE0A10FEDD0A10F7DD0A1084F90A10DC
:100FC000A3F120025E2A079300F299805A4A104644
:100FD0009EF0EAFF03998346574A079BC1B3FD2859
:100FE00000F28D809344514201EB0B00484504DB35
:100FF0001BF801098BF80200F6E702EB090002F882
:101000000930FFF72BFA4C489EF0CEFF044609F159
:1010100001094C4516DD049B9C4203D0B44201D02B
:10102000AC4209D1082031F067FD4448FFF79CFB32
:1010300008A8FFF799FB03E000210820FFF7E6F975
:10104000013CE6E73E4B1B6898689DF081FC22E07E
:10105000FD2854D81118039809F10104487002F8CA
:10106000093018460399FFF7D1F9049B013B5B4512
:1010700005D0731E5B4502D06B1E5B4505D1314820
:10108000FFF772FB3048FFF76FFB2D4BA1461B6843
:1010900098689DF05DFC97F8E83083B397F8663068
:1010A0006BB32A4C2A4AB4F90030B2F9002003EBA2
:1010B0004203284AB2F90020934220DB264B1868ED
:1010C00022F0F6F800232380244B3E201B689A1E52
:1010D000234B1B8813FB02F3224A138031F00CFDD3
:1010E000202031F009FD144834F07EF807E04FF07D
:1010F000010A0023039302E000239A46039341224E
:101100000DF12D010BA89DF0E1FE9DF82C30002B78
:101110007FF4CAAB08489EF047FF039B81450CBF94
:10112000002303F001030393FFF776BB0E48FFF79C
:1011300095F91DB0BDE8F08F98D50520F9DD0A10AE
:10114000886A0120F7DD0A1084F90A1030E70520CB
:101150006CE90520D4E7052074D10520689C0520A2
:101160006EE905202EE7052028D30A100148FFF775
:1011700075B900BF28D30A100B460A2100B589B003
:101180000246009103A805F09FF803A8FFF766F94F
:1011900009B05DF804FB00BF30B5054689B00848CA
:1011A0000C46FFF75BF90A212A46234603A8009163
:1011B00005F08AF803A8FFF751F909B030BD00BF68
:1011C0008C7B0A100B46102100B589B002460091B5
:1011D00003A805F079F803A8FFF740F909B05DF816
:1011E00004FB00BF30B5054689B008480C46FFF740
:1011F00035F910212A46234603A8009105F064F82A
:1012000003A8FFF72BF909B030BD00BF8C7B0A1093
:1012100010B50B46202404218AB00246CDE9011402
:1012200005A8009105F0E8F805A8FFF717F90AB03E
:1012300010BD00BF30B504468BB009480D46FFF71E
:101240000DF90421202022462B46CDE90011029001
:1012500005A805F0D1F805A8FFF700F90BB030BDDF
:101260008C7B0A1010B526499AB091F8F820D1F875
:101270005D3012B1D1F8FD209202A3F59213A3F5CF
:1012800080539B1A1F4A1B0B1362002311461E48F2
:10129000039376F081FB38B11A491B4876F018FBAE
:1012A0001849194876F078FB05A940F20313174A4C
:1012B000154876F01DFE04241EF036FC04AB0490A5
:1012C000412212490094104876F0FAFD03AA234601
:1012D00005A90D4876F01AFE039B05A901330A48BB
:1012E000039376F030FE234603AA05A9064876F05C
:1012F00024FE05A9044876F005FE1AB010BD00BF13
:10130000006C0120105D0120E0D905204EDE0A109E
:101310002DE9F0438BB094F045FA964B964ADB6A80
:101320009649034313604FF080435B6803F0010369
:101330000B70934B1B68A3F51C510939012902D886
:101340004FF0FF3306E042F20E718B4204D118B128
:101350006FF00103136008E042F20872934204D177
:1013600018B16FF00202844B1A601AF0BBF8FFF755
:1013700015F8042803D16FF003027F4B1A60814BEC
:101380009A69F2B15B799A1E022A01D9082B18D109
:101390007C4B1A79042A14D81A6A7B49A2F53B427D
:1013A000803A8A420DD89A68B2F5004F09D193F875
:1013B000E52093F877100A4303D01968734A9142E5
:1013C00009D01AF01DFA012100226D4B08461A605F
:1013D00094F0AAF9FEE76A4A146893F8EB2032B356
:1013E00000207AF079F86A4B64201A68694B644DE2
:1013F0001A60A6F01DFB42F206732A689A4220D1B9
:101400004022604B83F820200D2283F82120032204
:1014100083F82220002283F823201BF099FC01216D
:1014200042F2077308462B6094F07EF908E015221B
:1014300083F8EB20182283F8EC201BF089FCCFE71F
:10144000FEE701214FF47A702B6094F06DF94B4B5D
:101450001B7843B194F060F94A4B4F4A1B6A9342A0
:101460000CDC0C2013E0474B93F8F720002AF1D155
:10147000012283F8F7201BF06BFCEBE76FF4A075FB
:101480004649A3F543322A448A4217D80F2094F0E4
:1014900021F90A2093F0FEFC6722414B5A609A60C2
:1014A000DA606B221A615A619A61364B1A6A3D4BB7
:1014B0009A420FDC3C4B3D4ADA600BE06FF400705F
:1014C00049F63F42A3F59C230344934294BF112065
:1014D0001320DCE7022093F0DDFC2A4809AB006A08
:1014E00008AA07A994F072F840B9264B1A6A2D4B46
:1014F0009A4209DC2C4B2D4ADA6005E00798DDE9B9
:10150000081294F02DF8F0E7022093F0C3FC4AF69D
:101510004442274B1B4D0C2126481A6098F028FCAA
:1015200095F8E620A2B1244B03EB42135A68234BF3
:101530001A7087F00DFA87F0EDFA214B186020B988
:1015400085F8E6001BF004FC02E0A0F5001018602E
:10155000082093F0FFFF1B4B984235D01AF050F94A
:10156000012142F20772064B08461A6094F0DCF83B
:10157000FEE700BF00001040D0E20520A95A01207C
:1015800010010020006C0120604F0500D784201856
:10159000805A0120F89B0520400D0300BFD40100B4
:1015A000000004400065040000000D40026200409D
:1015B000B89C052080D5052030270B10B4EB052002
:1015C000B09C0520006CDC024FF4FA724FF47A777D
:1015D0004FF0E0264FF005096FF07F48A44D002141
:1015E0002B6A09205A437B430092012293F07CFF2F
:1015F000A0484BF005FAA04BA0481A69A04B1A600E
:10160000C6F81090C6F8148093F006F96420A6F08E
:101610000FFA4FF080429B4B00211A609A4B9B4A75
:101620001C60C6F81090C6F814802B6A98487B435B
:10163000136098F0D3F819F055FF98F0CDF89AF0B0
:1016400067FB0222934B00241A6093F01FFD4FF4B6
:101650007A720023A6F028F98F4EC6E9000193F0B4
:10166000D9FA8E4B8E4A02938E4B019400934FF021
:10167000FF3393F08FFC1EF0FBFE4BF01BFA8A4BFE
:101680008A4A1C608A4B01201C608A4B1C608A4B72
:101690001C60AB6A1360894A1360EB6A884A136066
:1016A000884A136079F076FF4FF47A700021A6F033
:1016B00093F812F05BFB12F083FB93F0E7FC4FF41E
:1016C0007A720023A6F0F0F87F4BAA7CC6E90001ED
:1016D0001A607E4B1C6095F88430013B012B13D8B7
:1016E0006B6A013310D08FF067FC06F009FB002015
:1016F0005EF0A2FE8AF010FB7548A6F099F95C4BEB
:1017000093F8F500A0B915E093F0C0FC05460E462D
:10171000704F002099F06CFB04460028E3D193F051
:10172000B5FC401B61EB060187428C41F1D2DAE740
:1017300046F0F6FE684903209AF0B6FD66490B2094
:101740009AF0B2FD64490E209AF0AEFD6249022083
:101750009AF0AAFD0F2060499AF0A6FDA5F0DCFFE3
:101760000130FBD14FF480725C4B5D491A605D48DB
:101770004FF400629AF0E4FF5B4B594A5B491360F7
:101780005B4A10469EF034FB5A4B1B78C3F1420370
:1017900003763D4B1B68A3F51C53073B072B09D869
:1017A00001229A4012F0A90F25D1012B02D193F00A
:1017B000F9FF00BB2E4B1B794BB942F20F72324B33
:1017C0001B68934217D042F2097293420CE0042B3B
:1017D00006D0494A013B126802EBC333474A136003
:1017E000464B1B681B78012B05D04148FEF736FE9F
:1017F0004348FEF733FE86F0A7FF4FF480720021C6
:1018000040489DF0E1FB00223F4B1A701E4B1A68C6
:1018100042F207739A4206D13C48FEF71FFE4FF092
:10182000FF323B4B1A60184B1A6842F20A739A4215
:1018300006D13848FEF712FE4FF0FF32344B6FE00E
:10184000334B1B6802330CD0314B1B68033368D118
:101850003148FEF703FE01222B4B1A7000220A4B7F
:101860005EE00122284B2D481A70FEF7F7FDEBE7EA
:10187000006C01200024F44800000A4028C3052021
:10188000C8AB052000B00D4010010020C0E40520C9
:10189000B464012000200A4018560520686705201E
:1018A00018FCFFFF810300208492052078D10520D9
:1018B000889205208C93052090930520745A01206E
:1018C00074D10520E49C0520EC930520989C05200C
:1018D000E0930400404B4C00990400100080064047
:1018E000D4B10520950100207856341258DE0A1034
:1018F0000CAC0520A95A0120885A0120DC9C052047
:1019000080DE0A1098D50520C0EB0520DEDE0A1027
:10191000D0E2052009DF0A103ADF0A101DDF0A10A5
:101920001A60A34B1B68043306D0A24BA24A1B7853
:10193000049313788BB106E001229E4B9F481A70E6
:10194000FEF78CFDF1E7002313709D4A82F87B308F
:101950001BF0FEF99B48FEF781FD9B4A13784BB1C3
:1019600000231370964A82F839301BF0F1F997483A
:10197000FEF774FD0024FFF775FC954B954D1C7028
:10198000954B20461A68954B1A6090F09BFA2B688D
:1019900053B19348FEF762FD28682146000DFFF71A
:1019A000EBFB9048FEF75AFD0121022006F07EFD78
:1019B0008D489EF02DF90446002836D000240020E2
:1019C0008A4B8B491C608B4B1C608B4B1A688B4B72
:1019D0001A60814B1A68814B1A607D4B1C70884BD2
:1019E000C3E90001874B4FF480611C70714B86483E
:1019F0001C70A6F031F80546002800F087800778B3
:101A0000002F00F08480814B01461C6002788048E2
:101A100001329EF053FA7E482C70A5F0ADFE0120F5
:101A20002C7005F013FD049478E2744B1B68197850
:101A300001290CD1A5F084FF614A937C043B102B53
:101A400009D892F88140B4FA84F4640903E00120D3
:101A500005F042FAF0E700226E4B6F491C706F4BA5
:101A60001A806F4B1B88013B1BB20B806D4B1A8099
:101A70006D4B6E4A1B88013B1BB21380504B93F891
:101A8000783093B9012005F00DFB00216848A5F0DE
:101A900047FE00280CDB6748A5F0C6FE4FF48072B5
:101AA00000215B489DF090FA02E05CF019FBE9E749
:101AB000434C2379002B00F0DE825F4B1A6842F220
:101AC0000B739A4200F0D782012005F00DF9012036
:101AD00005F0E8FA494B1B681B78012B11D13C4CEF
:101AE0004FF48072002120469DF06EFA534805F0B5
:101AF0008DFC60F07F03C0F3C810803823706070E5
:101B00000CE2002323711BF023F9B4E20746DFF84F
:101B1000B080DFF82C91484D98F86630B3B90024B6
:101B20000322484B1C60484B1A700122474B1A7025
:101B3000474B1C60A5F09CFF344B1C60454B1B6859
:101B4000012B18DD4448FEF789FC14E0434B18686C
:101B50002EF004FD424B1A68424B1A60424B1A6841
:101B6000424B1A60424BB3F90030002BD7D03A48B1
:101B7000FEF774FCD3E73F4ED8F81430002B00F08A
:101B80009A803278002A40F0968042F20D724B45DE
:101B90002A600BD13848FEF761FC00201C49FEF793
:101BA000B7FCD8F814304B456CD169E03348F2E704
:101BB000D0E20520C0EB052057ED052052DF0A10CA
:101BC000006C012066DF0A1056ED052090DF0A1038
:101BD000C4E40520B09C052094DC052094930520E6
:101BE000C3DF0A10CDDF0A10205605208897052094
:101BF0000000F03F8CA10520845A0120DC9C0520C8
:101C0000005E012093EE0520E7DF0A10BC9305205B
:101C100098D50520B9EB0520AC5D0120B25D01200F
:101C200038E70520AE5D0120D4E70520B05D012036
:101C3000F3DF0A101B2F0B1010010020387B0A1055
:101C4000FFE0F5051C9C0520A85A0120085E012034
:101C5000DCCC0520209C052028D30A10E89C052018
:101C6000745A012078D10520E49C052074D1052008
:101C70002EE705209FEB0520FEDF0A1027E00A1063
:101C800041F0CEFF954C2378002B3FF475AF94487C
:101C9000A5F0CEFE20469AF00DFF044640B1914BD0
:101CA0005B69A3427FF468AF01228F4B1A7002E098
:101CB00041F0B6FFF3E742F208732A6800209A4227
:101CC0001CBF00232B6005F0EDF98848FEF7C6FB2A
:101CD0000222874B814E1A60FEF75AFD3378002BA3
:101CE0003FF41AAF33461C781D46202C03F1010344
:101CF000F9D028469EF058F902281FD16B783A2B6C
:101D00001CD123467B4A125D02F00302022A08BF5F
:101D1000A4F12003412B03D1284677499EF068F8AF
:101D20002B78744AD25C02F00302022A08BF203BDF
:101D3000422B03D1284671499EF05AF82B782A2B62
:101D400007D000226E4B01201A6005F07FFB04973C
:101D5000E4E06B78282BF4D0664A33783546D15CC2
:101D600001360907F9D42A2B07D15C4C20469EF096
:101D70001BF900225F49204403E0624804F0ACFCF8
:101D8000F3E710F8013DCB5C13F0080801D00270B6
:101D9000F7E74FF49070A5F02FFE5B4906469EF0E2
:101DA00027F86B78222B08D043464FF0200C2220D6
:101DB000DFF840E1F41C01351FE02023F3706B785D
:101DC000741D337102352B7829460135F3B1222B6E
:101DD00000F01D8104F8013BF5E71EF80220120710
:101DE00010D40133012B04D1224602F802CB6070DB
:101DF000144615F8012C04F8012B294615F8012B7F
:101E0000002AEAD113B1222304F8013B08463949DC
:101E100003780246CD5C01302D07F9D4002B48D061
:101E20002C21234603F8021B2021617011782229FE
:101E30000CD1364A1168C4F80210516859601189F2
:101E4000927A19819A72024604F10D031C462223EC
:101E50001546DFF8BC8004F8013B2A4615F8013B23
:101E6000F3B1222B13D1D8F800302360D8F8043016
:101E70006360D8F80830A3602A7804F10C0322B11B
:101E8000244B1B68E36004F110031C4601E004F8D6
:101E9000013BA31BFF2BE0DD1F4804F01DFCDCE72A
:101EA00012F8013C222B1CBF222304F8013B002323
:101EB0002370A41BFF2C0CDCFF22314607489DF049
:101EC000FDFF0023054A304682F8FF3079F034FBED
:101ED00037E7114804F000FCEEE700BF98D5052075
:101EE000C0C62D00006C01209FEB052021DE0A10EA
:101EF000689C0520F9C90C1043E00A104EE00A1056
:101F00006CDC052059E00A10387B0A1068E00A10E2
:101F100074E00A1081E00A1086E00A10574B049A18
:101F2000574F1A70574A53781278DB0103F47E53E7
:101F300002F07F0242EA03053B782E46002B52D185
:101F4000514805F063FA514C2080514805F05EFA83
:101F50006080504805F05AFAA0804F4805F056FAC4
:101F6000E0804E4805F052FA20814D4805F04EFAC7
:101F700060814C4805F04AFAA0814B4805F046FACA
:101F8000E0814A4805F042FA2082494805F03EFACD
:101F90006082484805F03AFAA082474805F036FAD0
:101FA000E082464805F032FA2083454805F02EFAD3
:101FB0006083444805F02AFAA083434805F026FAD6
:101FC000E083424805F022FA2084414805F01EFAD9
:101FD0006084404805F01AFAA0843F4805F016FADC
:101FE0000123E0843B700023284931F8020B08B13B
:101FF000B0420ED00133142BF7D13848FEF72EFA39
:102000004FF48072002136489CF0DEFF33E0294611
:10201000FAE61D4805F0FAF985420BD01C4805F098
:10202000F5F9854206D01B4805F0F0F92A1A53420B
:10203000534100E001232B4805939DF0E9FD28B1B1
:10204000002005F02FF80022274B1A600D48A5F05C
:10205000EBFB059B2BB10020244B18600DF0D4FF47
:1020600005E04FF4807205991D489CF0ADFF0121F9
:102070001F489DF0D5FD049F49E500BFC0EB05203A
:1020800025ED0520C4E40520387B0A10DCAB0520D3
:102090005C7B0A10487B0A10547B0A10E4E00A10AB
:1020A000A5FB0A1096E00A109CE00A10A0E00A10B6
:1020B000A7E00A10ACE00A10B2E00A10B8E00A107B
:1020C000BEE00A10C3E00A10CAE00A10D0E00A100D
:1020D000D5E00A10DFE00A10E9E00A10F2E00A1089
:1020E00098D5052030550520BC93052044B0052027
:1020F0002056052000222DE9F04F8F4BDBB006461D
:102100008A461A6020F0ACFFBFF34F8F4FF4807205
:102110008A498B4C1AA89DF0D1FEDFF8288208204E
:1021200019F00CFB4FF400412068A5F011FCD8F821
:10213000007007F5004957F8043B013304D011F053
:102140003FFE814804F0C8FA4F45F4D100252F46E0
:10215000337893B37D484FF02009834631460E46CD
:1021600011F8012B12B30D2A1ED00A2A0BD0092A0E
:102170000BD100F8019BA0EB0B02FE2A00F38E832B
:10218000D207F6D40DE00D2F0ED1714B9E5C16F0E8
:10219000970F06D000F8012BA0EB0B02FE2A00F3EC
:1021A0007D8311F8017CDAE71746013600220270C0
:1021B0009BF80020BAB932786AB9002019F0F4FA15
:1021C00019F09AFBD4F8009001260027D8F80020D7
:1021D000CDF80C9076E05E498A5C12F0970F02D140
:1021E0007278002AE9D059489DF0DEFE594A92F8EB
:1021F00034100BEB000212F8012C8A420DD1023888
:102200001BF80010202908D13AB100220BF8002059
:102210004E489DF0C9FE5844A0E7002005F016F98D
:1022200047F6FA7BDFF8149119F8010B013548B134
:1022300019F0BAFA2368A3F58E13A3F580535B4512
:10224000F2DD2BE399F80030002BF1D1184619F09C
:10225000ABFA7DE7013503B901321378002B00F0AA
:102260006E81012B02D13C4B1A6001321378022B94
:1022700008BF0332914612F8011B2029FAD0032926
:1022800008D199F8012002324A44914612F8011B04
:102290002029FAD099F80120304BD201188802F495
:1022A0007E5201F07F0141EA020840450ED02C48E1
:1022B00005F0ACF8404509D04B461A461178013379
:1022C0000029FAD11378FF2BC4D138E1244805F056
:1022D0009DF840454AD1234805F098F809F10203DA
:1022E0001FFA80F81A789B46202A03F10103F9D0DF
:1022F000232A08BF9B46102200235846CDE900231D
:1023000001220023A5F08CFBC2B2012A02D0931F48
:10231000012B06D8029211F053FD134804F0DCF9AA
:10232000029A2368043323605B4619780BF1010B92
:102330000029F9D1013B25E06CDC0520C4E405202F
:10234000C4DE0520845A01200DE10A1098D505202D
:10235000F9C90C10006C0120BC930520E0E70520B2
:1023600025E10A1021E10A1030E10A100026B648E2
:1023700005F04CF822681FFA80F8043222603246D9
:1023800009F1010321680291216804312160591C7F
:1023900008788946202801F10101F9D0002A45D1A9
:1023A000DFF8A8B21BF80020930706D15F2804D0FD
:1023B00011F006FDA64804F08FF919F8013F1BF84B
:1023C00003205007F9D15F2BF7D02E2BF5D04946CB
:1023D0000A788946202A01F10101F9D01BF8022070
:1023E00012F0440F0DD099F801201BF8022012F0D2
:1023F000440F06D099F802201BF8022012F0440F77
:1024000014D199F800304A4609F10109002BF8D19E
:102410005178012904D18F49C1F8009002F10209D5
:1024200099F80020022A08BF09F10309DFF81CB25D
:10243000049599F80030002B4AD0272B48D099F802
:1024400000304D46202B09F10109F8D0002305F199
:10245000080915F8012B1BF8022012F0440F06D1D1
:10246000059311F0ADFC7C4804F036F9059B47F666
:10247000FA712268A2F58E12A2F580528A4200F308
:102480000D8215F8012C1B01392A01D8303A07E0DA
:102490001BF8021001F00301022908BF203A373A65
:1024A000A94543EA0203D4D1216804312160A94639
:1024B00015F8012B202AFAD016B113F4600F01D0C1
:1024C0000026B6E711F07CFC644804F005F9F7E754
:1024D00099F800304D4609F10109002BF8D16B78CD
:1024E00023B911F06DFC5E4804F0F6F86B78012B0F
:1024F00004D1584BC3F8009005F1020999F8003057
:10250000022B08BF09F1030949460B788946202BA5
:1025100001F10101F9D099F8011003F07F03C9011D
:1025200001F47E510B43984583D12268029B043A03
:10253000D21A06A941F82720049D0137BCE60026DF
:10254000484FDDF80C903A68C4F80090CDF808A028
:102550001378FF2B00F07581013503B90132137830
:10256000002B00F06E81012B02D13A4B1A60013230
:102570001378022B08BF0332924612F8011B202960
:10258000FAD0032908D19AF8012002325244924627
:1025900012F8011B2029FAD09AF80120324BD201FF
:1025A000188802F47E5201F07F0141EA020840459A
:1025B0000CD12E4804F02AFF40455DD12C4804F090
:1025C00025FF0AF102031FFA80F806E0274804F00D
:1025D0001DFF404540F02E81EBE71A789946202AEE
:1025E00003F10103F9D0232A08BF994610220023E2
:1025F0004846CDE9002301220023A5F011FA5FFA35
:1026000080FBBBF1010F03D0ABF10603012B04D813
:1026100011F0D6FB174804F05FF80BF1FF30C0B2A1
:1026200019F0C2F8002019F0BFF8002019F0BCF82A
:10263000802019F0B9F84B461A7809F10109002AEF
:10264000F9D103F1FF3925E050E10A10F9C90C1066
:1026500059E10A10BC93052067E10A1078E10A10DD
:102660009DE10A10845A0120E0E7052025E10A10C7
:1026700021E10A10B5E10A10914804F0C7FE1FFAE3
:1026800080F838684FF0000BAAEB000019F022F92F
:102690000AF10109236806AB53F8260019F01AF96C
:1026A00009F1010999F80020CA46202A09F1010917
:1026B000F8D0BBF1000F45D1DFF8089219F80210ED
:1026C000890706D15F2A04D011F07AFB7E4804F016
:1026D00003F81AF8013F19F803205207F9D15F2BCC
:1026E000F7D02E2BF5D051460A788A46202A01F1E0
:1026F0000101F9D019F8022012F0440F0DD09AF818
:10270000012019F8022012F0440F06D09AF8022096
:1027100019F8022012F0440F14D19AF800305246F2
:102720000AF1010A002BF8D15178012904D1674937
:10273000C1F800A002F1020A9AF80020022A08BF9C
:102740000AF1030ADFF87C919AF80030002B41D09F
:10275000272B3FD09AF80030D346202B0AF1010AEC
:10276000F8D000230BF1080A1BF8012B19F80220FE
:1027700012F0440F06D1039311F022FB544803F0EA
:10278000ABFF039B47F6FA712268A2F58E12A2F501
:1027900080528A4200F382801BF8012C1B01392AE7
:1027A00001D8303A07E019F8021001F003010229BC
:1027B00008BF203A373ADA4543EA0203D4D1184633
:1027C00019F088F8DA469AF800300BF1010B202B4B
:1027D000F8D0B9E79AF80030D3460AF1010A002B85
:1027E000F8D19BF8013023B911F0EAFA394803F027
:1027F00073FF9BF80130012B04D1344BC3F800A0C8
:102800000BF1020A9AF80030022B08BF0AF1030A02
:10281000524613789246202B02F10102F9D09AF821
:10282000012003F07F03D20102F47E521343984546
:102830008AD1013653461A46117801330029FAD15C
:1028400086E6DDF808A04FF0FF3019F043F819F0E4
:102850006DF8BAF1000F16D01F4B1B68012B02DD7B
:102860001E48FDF7FBFD1E48FDF7F8FD0A23EA1C94
:102870001C480093D31703F027FD1A48FDF7EEFD1F
:102880001948FDF7EBFD4FF480721AA915489DF029
:1028900015FB5BB0BDE8F04F11F092BA002018F0C4
:1028A00083FF002018F080FF002018F07DFF19F052
:1028B0003DF80E485BB0BDE8F04F03F00DBF00BF20
:1028C00050E10A10F9C90C1059E10A10BC93052017
:1028D00067E10A109DE10A10209C052028D30A1008
:1028E00090FB0A10C4E40520D6E10A10DFE10A10CB
:1028F00010B58B4204D15A70121218709A7010BD24
:1029000013F8014DDC70F4E7F0B50C68064694420C
:10291000069D25D0621C0A60059A247812F4803F37
:102920000CBF00200B20F2B20BB19A5C1C5D01269B
:10293000A24200D9F0BD73B1995CC910685C6F18F0
:102940005BB1995C01F0070106FA01F101433970AE
:1029500000200132ECE7D110F0E702F00701F3E7C5
:102960000B20E7E773B5036815465A1C01921A78E5
:102970000446002A4DD0063AD0B2172802D90020CA
:1029800002B070BD172AFAD801A050F822F000BF9B
:10299000F12900107F2900104F2A0010132A00107F
:1029A000132A0010132A0010132A00101B2A0010EB
:1029B0007F2900107F2900107F2900107F29001037
:1029C0007F2900107F2900107F2900102F2A001076
:1029D0007F2900107F2900107F2900107F29001017
:1029E000132A0010132A0010132A0010132A0010B3
:1029F0002A4601A85E7800F04FF815F8263003F05B
:102A00000302032A04BF60F3010305F826300028FF
:102A1000B5D0019B01202360B2E793F902105A78E8
:102A200012EB0122ABD403321A440192F1E793F97D
:102A30000410DA7802EB0122002AA0D15A7893F927
:102A40000210033202EB012213440193E1E75B78A9
:102A500015F823309B0792D0DBE700BF37B50C4653
:102A600015460190019BA34201D3012012E01A7880
:102A70000F2A08D1587893F90220033000EB022086
:102A800003440193EEE72A46214601A8FFF76AFFB7
:102A90000028E7D103B030BD2DE9F3410746884651
:102AA0001646036802330193019C444516D22378ED
:102AB000072B37D00F2B39D194F9023065780334C6
:102AC00015EB03250194EFD4EB1EE118E35C0E2B0C
:102AD0000DD132462046FFF7C1FF18B9002002B0E1
:102AE000BDE8F081625D63190F2A10D01C4614F90D
:102AF000013C14F8025C324605EB032525442946C7
:102B00002046FFF7ABFF0028E8D00195CCE793F90A
:102B100002205D78DC1C05EB02255A5D01940E2A2B
:102B2000D2D0E3E7023401203C60D8E73246414688
:102B300001A8FFF717FF0028B6D1CFE72DE9F04F26
:102B400085B00646D0F810908368046800AF4FF453
:102B5000807286B00021484604EB030B9CF034FAE7
:102B6000337FEA4623F0090343F008033377052354
:102B70004FF00008BB6001235C4502D02278012A97
:102B800010D1327F02F001010B4363F30002327770
:102B9000B8F1000F4ED0012308F1FF385AF8285041
:102BA0002C46E9E7651C1D2A00F2148101A151F8A9
:102BB00022F000BFA12B0010D52D00103F2C0010DB
:102BC000E52C00104D2C0010752C0010D12D00109C
:102BD000D12D00102D2C0010A12B0010A12B0010C6
:102BE000A12B0010A12B0010092D0010092D0010A1
:102BF000552D0010552D0010092D0010092D001025
:102C0000092D0010A12B0010BF2D0010092D001060
:102C1000B12D0010AF2C0010C92C0010A12B0010FA
:102C2000A12B0010A12B0010A12B0010337F43F02B
:102C30000103337700201437BD46BDE8F08F012231
:102C4000A37809F803205D460023A9E74FF0FF337E
:102C50000121627803EBC2035A1CF4D004EBE302B7
:102C6000927803F007000241D00748BF09F803102B
:102C7000013BF1E701226378DB00FF2B13DD4FF00E
:102C8000FF330121627803EBC203581CDBD004EB55
:102C9000E302927803F007000241D50758BF09F814
:102CA0000310013BF1E709F803200133E5E70023B6
:102CB0004B4A12F8011B012908BF09F80310013320
:102CC000B3F5807FF5D1BEE700230121444A12F815
:102CD000010B012818BF09F803100133B3F5807FF9
:102CE000F5D1B0E74FF480720121484699F80A40C7
:102CF0009CF06AF9F3685A0602D489F80A40A2E700
:102D0000337FDB079FD595E794F90210627802EBD9
:102D10000122911C002A0D443FF742AF2A780F2A66
:102D200002D0152A7FF43CAF6A7895F9021003327D
:102D300002EB01221544B8F1000F3FF431AF08F166
:102D40008042013A5AF82220AA427FF429AF08F1C2
:102D5000FF3825E7002294F902107A606278E51CBA
:102D600002EB0122AA185A45FA6023D2BA689045AC
:102D700015D113211B4A3B6012684A4342452BD3AD
:102D80006B46A3EBC8039D46514668464FEA88024E
:102D90009DF094F882464FEA4803BB603B68FA68AE
:102DA0004AF8282008F101087A68002A3FF4F8AEB2
:102DB000651DF5E6327F42F001023277F4E794F9BF
:102DC0000410E27802EB0122002AF1D10122C2E7CD
:102DD000E51CE5E699F062FE6FF001002BE700BF0D
:102DE00072ED0520AC5A01202DE9F04FA3B09B46AF
:102DF0000668836800AFF3187B63436986B07B6421
:102E00008369C7E91921D7E92E92FB6401333B633B
:102E1000FB6CB864C7F86CD08BB33B6B9B0007337B
:102E200023F00703ADEB030DC7F854D0ADEB030D52
:102E3000C7F850D0ADEB030DC7F81CD0ADEB030DB8
:102E4000C7F818D0ADEB030DC7F810D0ADEB030DEC
:102E5000C7F80CD0ADEB030DEA46ADEB030DC7F898
:102E600004D0ADEB030DC7F800D0D7F8B430002B79
:102E700010DA4FF0FF308C37BD46BDE8F08FFB6CA9
:102E80009A46C7E90033C7E90333C7E90633C7E900
:102E90001433EAE7D7F8B0107B6E0B44D7F8B410C0
:102EA0008B42E6DB0123A048396B8B425CD3D7F819
:102EB000B0304BB9BB6E3BB1D7F8B0109B467B6EC0
:102EC000B9667966C7F8B030D7E919130B443B6788
:102ED000D7F8B03091425B44FB625BDBBB6EC7F856
:102EE0005CB01344FB637B6E002B5BDDD7F8B42032
:102EF000934257DBBB6E9C18FB6B3B6605234FF47C
:102F0000807C7B6740F201130025C7E91EC3BD65C5
:102F1000BD637D61BD607B6B9E4240F08281FB6D35
:102F2000A34200F0A3807B6E002B42D0BB6EBA6B35
:102F300093423ED813463A6F93428CBF002301233D
:102F4000FA6B396E501A424242419A4233D1BB6BFE
:102F50009C4294BF002301237A69002D71D00AB1ED
:102F6000002B41D0012339E0B96941F82300F96908
:102F700041F82300396D41F82300796D41F82300B1
:102F80001AF8231021F01F0141F003010AF8231061
:102F9000013389E77B6ED21A0BEB0203FB653B6FB3
:102FA000FB63A0E7D7F8B4307A6E9C1A5C44FB6DE3
:102FB000A3E70023C4E7FB6B3A6E9B1A18BF0123FB
:102FC000CAE77A6D396952F8232041F823203A6D17
:102FD000F96852F8232041F8232001333A6B9342D9
:102FE000EFD30123BC637B6121460022002D01F059
:102FF0001F80F86E6B1E50F8234000EB8303002CFB
:1030000008BF0C4653E9021853F80C3C00EB85004E
:10301000FB670B46B967043DF96FEE1E8B42A0F1CA
:103020000C0080F0BC87B8F1000F00F0FE877B6BCE
:10303000434500F2C687002A00F0DF87BB6A00F034
:10304000DABF9AB193B9BB6EBA6BBC6B934207D827
:10305000D7E90E12FB6D386F814298BF1346FB65AE
:1030600001233A6B9A420FD8FB6D3B66B9F1000F12
:1030700018D1D7F8B4303A6EE01AFB6B934240F0A7
:10308000CB80BB6EC01AF6E63A69796D52F8232000
:1030900041F82320FA68396D52F8232041F82320A3
:1030A0000133DEE7BB6C1B7FD906E2D413F00603C5
:1030B0002ED1FE6C02361E2E38BF1E26C9F80060C7
:1030C000B600304696F0B0F9C9F80400054630461F
:1030D00096F0AAF9C9F8080015B96FF00100CAE620
:1030E0000028FAD00122BB6C1B7F62F34203BA6C4A
:1030F0001377D9F80430D7F8B4201A60FB6B3A6E16
:10310000934232D1BB6EE31AD9F80820136005E070
:10311000022B0BD0D9F80030002BEAD101234FF05D
:10312000FF30DFF804E037E0C7EB0520F96CD9F891
:10313000003002319942DCD9C9F80010D9F80400F6
:10314000890096F08DF9D9F80010C9F804008900BB
:10315000D9F8080096F084F9D9F80430C9F80800C5
:10316000002BBAD00028D5D1B7E77A6EA4EB0B03B9
:103170001344C9E77A6D9D0052F82310714504D0BD
:103180003A6D52F82360764520D1D9F8081048519D
:10319000D9F8041048510133D9F800103A6B914224
:1031A00028BF11469942E5D813464FF0FF32D9F8AF
:1031B000001099427FF65DAFD9F8081041F823203E
:1031C000D9F8041041F823200133F0E77A6EC2B138
:1031D000BA6E914215D33A6F914212D8BA6E891ADB
:1031E000D9F8042051517A6E8AB1BA6E96420ED344
:1031F0003A6F96420BD8BA6EB61AD9F808104E51EB
:10320000C9E77A6EA1EB0B0C0CEB0201E8E77A6ED2
:10321000A6EB0B061644F0E77B6EABEB0303BB6635
:103220002FE7B04618F8012B1D2A00F2B68601A33D
:1032300053F822F0293500106D3000104D33001086
:10324000DD3300103D3400103D340010993400107F
:103250003535001035370010453800108338001020
:10326000AF380010CD3800102D3B00102D3B001062
:103270009D3C0010D9380010093B0010473A00105F
:10328000F9320010AD320010793C0010D73C00102C
:10329000ED3C0010E73E0010473F0010013E0010DB
:1032A0006D3E0010153D0010913D0010D7E91E3213
:1032B0009E1A06EB4606F31D9C4E3B647B6F3A6CF0
:1032C0005B1B9342C0F0AF84FB6E03EB8501FB6F89
:1032D000BE6FE81C9E4201F10C0280F0BA84FA6FC6
:1032E0006B1C0A60FA6E043542F8236002EB83031C
:1032F00000225A609A6017E1D7E91E329B1A03EB4D
:10330000430307333B647B6F3A6C5B1B9342C0F013
:103310005F84FB6E03EB85010A46FB6F02F10C0E26
:10332000C7F840E0D7F878E005F1030C9E4501F1BD
:103330000C0080F06484FB6F04350B600023C2F83E
:1033400004E09360FA6E42F82C30EFE37A6C737805
:1033500006F102089AB9396E22468C4222D01178C1
:1033600018F8012B013491427FF43EAE013BF2D1BB
:1033700014E0FA6DA2423FF437AE5C463A66396E0D
:1033800022468C42F5D01278796C0134895C18F8A9
:10339000012B91427FF428AE013BF0D1BB6DABB164
:1033A0000123C0E0FA6DA2423FF41EAE5C463A66CD
:1033B000D1E71AF8232022F0180242F018020AF886
:1033C00023200133BA6F9A42F3D2E9E7FB6FF9E7A2
:1033D000FB6DA3423FF408AE5C463B663B6E9C42ED
:1033E000F6D0BB6CDB685A0606D4796C227801B142
:1033F0008A5C0A2A3FF4F8AD1B0606D57A6C23785E
:1034000002B1D35C002B3FF4EFADBB6D73B101345F
:10341000C6E71AF8232022F0180242F018020AF830
:1034200023200133BA6F9A42F3D2F0E7FB6FF9E73A
:10343000FB6DA3423FF4D8AD5C463B663B6E9C42BD
:10344000F6D0796C237801B1CB5C7178B3EBC10F06
:1034500010D208EBD300407803F0070340FA03F3DF
:10346000DE0707D5052A3FF4BFADBB6D93B101312F
:103470008844CCE7052AF8D0B6E51AF8232022F0D4
:10348000180242F018020AF823200133BA6F9A4258
:10349000F3D2ECE7FB6FF9E77378C7F884801AF88A
:1034A000233003F00303032B0CD15246796B07F151
:1034B0008400FFF7F1FA73781AF8232060F3010211
:1034C0000AF8232073787A6D1AF823C002EB830080
:1034D0001CF0030F52F823200AEB830104D0DFF81D
:1034E00050C0624508BF2246D7F81CC006F1030849
:1034F0004CF823200B78046043F004030B707278BF
:10350000C7F808801AF8223023F008030AF822309E
:103510007378BB6740F20113D7E91E129A4208BFC5
:103520000A46FA670023BB654646F4E4AC5A01201C
:10353000C7EB052073783A6D1AF823C002EB8300BD
:103540001CF0030F52F823200AEB830104D0DFF8AC
:10355000BCC2624508BF2246D7F818C04CF82320E9
:103560000B78046023F004030B70D7E91E23934209
:10357000717827D04B1EDBB20AEB830213B312F82B
:10358000040940071BD5BB671AF821800AEB810E9E
:1035900018F0080F03D0BB689E4240F0C8807A6BD9
:1035A000F31C9A4240F2C380F378301D132B10D8DD
:1035B000102B76D80D2B74D000239C4615E0013BD0
:1035C000DBB2DBE74FF4807040F20113C7E91E0362
:1035D000DAE7162BF0D1012296F90500337903EBD7
:1035E00000239C46002A5ED1B01DC218BCF1000F1A
:1035F000C7F8842080F29B80C35C0F2B40F097803B
:10360000D378062B40F0938013798B4240F08F8063
:1036100018F0100F4AD15378D61CBB659378C7F8C1
:1036200084603B64D7E91E32A3EB020808EB48082C
:1036300008F107087A6F764B521B424551D3FB6E57
:1036400003EB85021046FB6FB96F0C3299425ED2D4
:103650000C22D7F87CC0FB6F01316145A1EB03035D
:1036600003FB02F238BF002203EB430338BF002301
:10367000D7F87CE000EB020C40F802E0BA6FB86DBE
:10368000CCF8042097F94020E91C0435194400EBDC
:1036900002221D44FB6E1644CCF8086043F821401A
:1036A000A2E4002298E706F108009EE79EF80030A9
:1036B00023F010038EF800307378B17819449942E2
:1036C000A9D9F86950F82360786D40F82360B8698B
:1036D00050F8230086429CBF3E6D46F8230001331C
:1036E000EDE71A6813235A437B6F9A42FFF4F5AC57
:1036F0006B467A6FF96EA3EBC2039D469200684653
:103700009CF0DCFB7B6FF8665B007B6792E7796D72
:1037100051F8231042F80C1C396D51F8231042F86F
:10372000081C5AF82310013342F8041C8CE706F1F8
:103730000308F7E67B6D727806F1020853F8226001
:10374000324B9E423FF450AC396D51F822209A42E0
:103750003A643FF449AC7B6E3BB3BB6E9E42C0F013
:1037600071843B6FB96E9E428CBF002301238A4255
:1037700019D33A6C396F8A428CBF00220122D7E9F3
:103780000F019A4218BF014679627B6A9E4215D1A9
:10379000FB6DB3423FF4C8AE3B6CB3423FF4C4AEE2
:1037A0005E467B62F1E70022E9E73B6C7B62ECE777
:1037B000FB6DA3423FF418AC5C463B663B6E9C42FB
:1037C000F6D07B6A9A1B3B6E1B1B9A42A8BF1A4617
:1037D0007B6C3A62F3B1A118234632468B4206D184
:1037E0003B6A1C441E44BB6D4BBBFB6F24E0D7F807
:1037F00044E013F801CB12F8010B1EF80CC01EF8C0
:1038000000008445EAD0FFF7EFBB00BFC7EB0520FF
:10381000AC5A0120314620463A6A9BF029FB002829
:10382000DED0FFF7E1BB1AF8232022F0180242F0A5
:1038300018020AF823200133BA6F9A42F3D2012307
:10384000BB65A2E7D7E91923002A08BF5B469C4263
:1038500002D0D7F8B0303BB9BB6C1B7F13F0200F00
:103860003FF462AEFFF7C0BB14F8013C0A2B7FF4B3
:10387000BBABBB6C93F91C30002BFFF655AEFFF7CA
:10388000B3BBFB6A9C4204D1BB6C1B7F13F0400F9F
:10389000E6E73B6F9C420CBF9BF800302378A3F116
:1038A0000A014B424B41002BE3D1FFF79DBBD7E907
:1038B0001923002A08BF5B469C423FF435AED7F877
:1038C000B030002B3FF430AEFFF78EBBFB6A9C425A
:1038D0003FF42AAEFFF788BB727896F9023006F102
:1038E000030802EB03233B64D7E91E329E1A06EB62
:1038F0004606F31DAD4E7B627B6F7A6A5B1B93427B
:103900001AD3FB6E03EB85010A46FB6FD7F878E00C
:10391000EE1C9E4501F10C0002F10C0C21D2FB6F54
:1039200004350B603B6CC2F804E043449360002311
:10393000FA6E42F82630F7E51322336853437A6F64
:103940009342FFF4CAAB6B46A3EBC2039D46F96EEC
:10395000684692009CF0B2FA7B6FF8665B007B676A
:10396000CAE77A6D014652F82320354640F80C2C00
:103970003A6D52F8232040F8082C5AF823200133DE
:1039800040F8042C6246C1E7012193E113F8010BD2
:103990000028F9D009B1C7F884201378062B40F02D
:1039A000918153789278F96F1A44BA6740F2011204
:1039B000914208BF1946F96784E1132233685343E3
:1039C0007A6F9342FFF489AB6B46A3EBC2039D462B
:1039D000F96E684692009CF071FA7B6FF8665B00A6
:1039E0007B677B6F7A6A5B1B9342E6D3FB6E03EBCC
:1039F00085021046FB6FD7F878E0EE1C734502F1A4
:103A00000C0C00F10C010BD9FB6F043503603B6C0F
:103A1000C2F804E043449360FB6E43F8264083E51C
:103A20007A6D084652F82320354641F80C2C3A6D41
:103A300052F8232041F8082C5AF82320013341F88A
:103A4000042C6246D7E796F902307178F21C01EB3C
:103A500003211346D7F834C0981C844506D918783A
:103A60000638012802D8D81C0346F3E7D7F834C03B
:103A7000981D604504D293F800C0BCF1130FF3D039
:103A80000A44796BC7F884208B423BD0197802290D
:103A90000FD0B86C90F91C00002821DA0A291FD138
:103AA000D378022B07D153798B422BD10D2333705E
:103AB0003CE09978F4E7181F0128F7D81079B1EBAA
:103AC000C00F0BD202EBD102527901F0070142FA8A
:103AD00001F1CA0702D5052BE8D113E0052BE4E775
:103AE0000429E3D1D178022928D152795978B2EB4F
:103AF000C10F07DA03EBD2039B7802F007021341F0
:103B0000DB07D3D411233370F96EFB6EEA1E53F832
:103B1000223001EB820252F8040C043D01F1080C42
:103B20008342A5F1030245D20023BB65737896F961
:103B30000220023303EB02239844F5E4052916D151
:103B40000021501D13F801EF38648E45C4DD13F8D1
:103B5000010F50B192F804C08C45A7DDD7F840C0E2
:103B60001CF801C030EA0C0CA0D10131EDE70429AA
:103B70009CD1111D3964002113F801CF8C4517DD4C
:103B800092F804E08E4502DC13798B42A4E7386C8E
:103B900013F801EFC7F824E010F801EF3864786AF1
:103BA00010EA0E0FF0D10131E8E700BFAC5A012056
:103BB000A8D0E9E75CF822103D6845F82310F96EBB
:103BC0007D6851F8221045F823101546013BA7E700
:103BD0001322B74B1B6853437A6F9342FFF47DAABD
:103BE0006B46A3EBC2039D46F96E684692009CF0BB
:103BF00065F97B6FF8665B007B67FFF784BB7A6DC6
:103C0000014652F82320654640F80C2C3A6D52F8D4
:103C1000232040F8082C5AF82320013340F8042CC4
:103C20003A6CFFF77BBB1322336853437A6F93429E
:103C3000FFF453AA6B46A3EBC2039D46F96E684698
:103C400092009CF03BF97B6FF8665B007B67FFF7A7
:103C500035BB796D054651F8231042F80C1C396DBF
:103C600051F8231042F8081C5AF82310013342F887
:103C7000041C1146FFF72CBB96F90420F37803EBE4
:103C80000223002B06DD013BF3701B12337106F19A
:103C9000050849E47FF448ACF370337196F90220CB
:103CA000737806F1030803EB02233B6400214346CB
:103CB000C7F88480786B1A4698423FF667AE09B120
:103CC000C7F88430D7E91E329E1A06EB4606F31D6C
:103CD0007B62774E85E696F90420F37813EB022396
:103CE000D5D0013BF3701B1233711FE7727896F940
:103CF0000230033296F9040002EB0322F378B11884
:103D000003EB0023B3541B12C7F8841006F1050817
:103D10004B7009E4D7E91923002A08BF5B469C428F
:103D20003FF402ACD7F8B030002B3FF4FDABFB6A98
:103D30009C423FF4F9AB3A6F631E9A4217D19BF84D
:103D400000305C493A6FCB5C03F1FF3CDCF10003CF
:103D500043EB0C03944212D19BF800208A5C561E60
:103D6000724272419A427FF4DFABFFF73DB9A3453F
:103D70000ABF3B6F14F8013C13F8013CE1E70BF17B
:103D8000FF3294420ABF3A6F227812F8012CE5E71D
:103D9000D7E91923002A08BF5B469C423FF424A9B7
:103DA000D7F8B030002B3FF41FA9FB6A9C423FF4C8
:103DB0001BA93A6F631E9A4211D19BF800303D490E
:103DC0003A6FCB5C581E4342434194420FD19BF85B
:103DD00000208A5C511E4A424A419A4278E5A34536
:103DE0000ABF3B6F14F8013C13F8013CE7E70BF105
:103DF000FF3294420ABF3A6F227812F8012CE8E7AA
:103E0000FB6A9C423FF4F0A83B6F9C421DD19BF89B
:103E10000030284AD35C012B7FF4E6A8D7E91923A8
:103E2000002A08BF5B469C423FF47EABD7F8B03017
:103E3000002B3FF479AB3A6F631E9A420ED19BF888
:103E400000301C4AD35C012B8DE70BF1FF339C4201
:103E50000ABF3B6F237813F8013CDAE7A3450ABF9A
:103E60003B6F14F8013C13F8013CEAE7D7E919234A
:103E7000002A08BF5B469C423FF4B6A8D7F8B03092
:103E8000002B3FF4B1A83A6F631E9A4214D19BF8FD
:103E90000030084AD35C012B7FF4A6A8FB6A9C4241
:103EA0003FF442AB3B6F9C420ED19BF80030C9E718
:103EB000AC5A012072ED0520A3450ABF3B6F14F8F0
:103EC000013C13F8013CE4E70BF1FF339C420ABFCD
:103ED0003B6F237813F8013CB4E7FB6DA3423FF43A
:103EE00083A85C463B663B6E9C42F6D03B6F9C428F
:103EF0000CD19BF80030574AD35C012B7FF474A897
:103F0000BB6D002B7FF483AAFB6F11E00BF1FF3335
:103F10009C420ABF3B6F237813F8013CEBE71AF889
:103F2000232022F0180242F018020AF8232001335D
:103F3000BA6F9A42F3D2FFF76ABAFB6DA3423FF41D
:103F400053A85C463B663B6E9C42F6D03B6F9C425E
:103F50000CD19BF800303F4AD35C012B3FF444A8BE
:103F6000BB6D002B7FF453AAFB6F11E00BF1FF3305
:103F70009C420ABF3B6F237813F8013CEBE71AF829
:103F8000232022F0180242F018020AF823200133FD
:103F9000BA6F9A42F3D2FFF73ABA98F07FFD50F821
:103FA000081C3D6D4AF8231050F80C1C45F82310EE
:103FB0007D6D50F8101C45F823103546013BFFF786
:103FC0002BB898F80030122B26D8102B02D80D2BC6
:103FD0007FF431A8002298F8013098F902100333D9
:103FE00003EB012308EB0301B96218F80330C2B1F7
:103FF000152B19D00B46C7F88430BB6EA3423FF691
:1040000091AA0023FA6B396FBB653B6E8C4298BF57
:1040100013463B66FFF788BA162B7FF40CA80122E3
:10402000D9E70F2B7FF40AA801222146FEF7DEBF55
:1040300012B1BB6AC7F884307B69002B7FF403A8F8
:10404000FEF717BF3B6CBA6E9342FFF4AFAB002391
:10405000FFF78FBB72ED05202DE9F04FD0E9048A00
:10406000174687B0109ADDE91145002C07EB0209CD
:1040700006468B4604EB0502C0F29180A145C0F2D2
:104080008E80002A24DA6542B26872B1002D0CDD00
:10409000326812780B2A05D0092A06D196F91C201D
:1040A000002A02DB002C7AD10125B8F1000F53D091
:1040B000327F110750D430460593FEF73FFD0230A2
:1040C000059B49D16FF00104204607B0BDE8F08F91
:1040D0009145B8BFA9EB0405D6E7A3EB070C28462A
:1040E000A444BAF1000F09D1904211DD1CF801EB94
:1040F00018F80E1061B90138F6E70138904207DD73
:104100001CF801EB1AF80EE018F80E100029F4D094
:104110002D1A2C440546002D07DB4C4505D1B8F17E
:10412000000F02D0327FD20739D5149A5946039234
:10413000139A3046CDE90142109A059300923A460F
:10414000FEF752FE0028BFDA0230BBD0002D26D089
:10415000059B2ADD013D0134B8F1000FDBD04C4551
:10416000D9DA327F12F00102DFD1002D08DDBC4226
:10417000B3DA6019B84201DB3A1BAA1ADC46AEE793
:104180000FB1BC420EDBE21B9A5CBAF1000F01D00A
:104190001AF8022018F80220002AC6D12DB94FF0D3
:1041A000FF3491E71BF80420EFE70135013CD3E72A
:1041B0002DE9F04F1C460023BFB00D9303460B447E
:1041C000069363690B901D904FF42070049207933F
:1041D00095F02AF9059070B3049BA44EE360002388
:1041E000A360A361237F356823F068032377B5B903
:1041F0004FF4807229469E489AF0E6FE01219D4BBD
:104200009B4A13F8010F470718BF51550135B5F503
:10421000807FF6D10123964A336082F85F3063686D
:104220009BB9206858B1202195F01AF9206050B947
:10423000059895F033F90C203FB0BDE8F08F2020B1
:1042400095F0F2F8F2E7202363600023089320231F
:104250000C9300231E461D46D4F800800A93CDF827
:104260000C802F46C0E00AF1010309931D93079BC0
:104270009AF800B00BB113F80BB0BBF12E0F45D874
:10428000BBF1230F25D8BBF10A0F00F086865FB182
:104290003A78531C3B44984506D1FF2A04D01D9A16
:1042A00013782A2B41F0FD824546D4E90091A8EB12
:1042B000090302338B4201F222834346022203F8B0
:1042C000022B002208F1010788F80120984601F02E
:1042D000FFBAABF124030A2BD9D801A252F823F07C
:1042E000794400108F4200108F4200108F4200105E
:1042F000AD4E0010474F0010354300102B43001007
:104300008F4200108F42001069470010BBF15E0F12
:1043100041D034D8BBF15B0F00F02882BBF15C0FB9
:1043200000F07086BBF13F0FB1D140F20243049A16
:104330001A42ACD1002D00F0F48000229246914642
:1043400004991D9B01F00201BBF13F0F18BF4AF019
:10435000010A0698BBF12B0F18BF49F001098342EF
:104360005FFA8AFA40F0EA800AB103461D93002DF5
:104370003AD0BAF1000F40F02B81C34688E1BBF17F
:104380007B0F00F01486BBF17C0F80D1049B13F4EB
:10439000004F00F005BE0B9B0AF1010201339A4267
:1043A00018D0049B13F0080314D10B990AF1FF32C3
:1043B000914205D21AF8023CA3F15C0253425341E8
:1043C0001AF8012C282A27D1049A02F400521A4321
:1043D0003FF45DAFD4E90091A8EB090301338B42B0
:1043E00021D8092308F8013BDDF874A0069B9A4503
:1043F0007FF439AF3EB10E22A8EB0603033B737086
:104400001B123270B370089B002B01F0BF8205981D
:1044100095F044F808200FE77C2A7FF438AF049A1F
:1044200002F40042D3E7B1F5803F01D10F2003E74A
:104430004900B1F5803F28BF4FF4803148466160A4
:1044400095F00EF8206000283FF4F5AE4845C1D045
:10445000039BA0EB090003448044039306B1064488
:1044600005B10544002FB5D00744B3E77CBC052057
:1044700072ED0520F8C90C10069A0AF10103934267
:1044800015D0049B1B0712D406990AF10203994226
:1044900098BF002304999AF80120880410D5292A8E
:1044A00005D00499090412D57C2A7FF4F0AED4E932
:1044B0000091A8EB090301338B4211D80A2391E73D
:1044C0005C2AEED1002BECD019782929E8E75C2A88
:1044D0007FF4DDAE002B3FF4DAAE1B787C2BE4E7F3
:1044E000B1F5803FA2D04900B1F5803F28BF4FF41D
:1044F00080314846616094F0B3FF206000283FF4AB
:104500009AAE4845D3D0039BA0EB090003448044F6
:10451000039306B1064405B10544002FC7D00744F4
:10452000C5E7049B980604D5059894F0B7FF0D20C5
:1045300082E6049BD9067FF5AAAEFEE61A460798E6
:1045400012F801BB08B110F80BB0BBF12A0F07D06D
:1045500049B9BBF12B0F03D0BBF13F0F7FF406AF7E
:1045600013460122F0E6BBF15C0F7FF4FFAE069824
:10457000824204D1059894F091FF05205CE60798EB
:1045800093F801B09A1C0028E3D010F80BB0E0E7D4
:10459000B1F5803F3FF44AAF4900B1F5803F28BFF5
:1045A0004FF480315046616094F05AFF206000283B
:1045B0003FF441AE50450BD0039BA0EB0A000344EF
:1045C0008044039306B1064405B1054407B107448E
:1045D000D4E900A1A8EB0A0303338B42D8D81D9A73
:1045E000079912F8023C29B3CB5C91F82E1099423E
:1045F00024D1B9F1000F21D0069B93421ED9137824
:10460000079ACAB1D35C927A9A4217D1049B5A0690
:1046100014D4CA460D21A5EB0803033BDAB2C3F359
:10462000072388F8001088F8012088F8023008F184
:104630000308A2E62E21DAE70A22E5E7A5EB080344
:10464000063BDAB212214FF0000AC3F30723E8E772
:10465000B1F5803F3FF4EAAE4900B1F5803F28BF95
:104660004FF480314046616094F0FAFE20600028EB
:104670003FF4E1AD40450BD0039BA0EB08000344A1
:104680008344039306B1064405B1054407B10744CA
:10469000D4E90081ABEB080303338B42D8D85B46E7
:1046A0000AF10F0029465A1BC0B20BF10308FEF7AE
:1046B0001FF9B9F1000F1ED0002795E6B1F5803F34
:1046C0003FF4B4AE4900B1F5803F28BF4FF48031CC
:1046D0003846616094F0C4FE206000283FF4ABAD22
:1046E000B84208D0039BC01B03448044039306B127
:1046F000064405B10544D4E90071A8EB0703033370
:104700008B42DBD84346032229461320FEF7F0F8FC
:1047100008F10308D0E7B1F5803F3FF487AE4900C8
:10472000B1F5803F28BF4FF480314846616094F076
:1047300097FE206000283FF47EAD48450BD0039BD8
:10474000A0EB090003448044039306B1064405B17D
:10475000054407B10744D4E90091A8EB09030133EC
:104760008B42D8D803233DE64546F4E7069A0AF182
:104770000103934222D1059894F090FE07205BE557
:10478000B1F5803F3FF452AE4900B1F5803F28BFFC
:104790004FF480314846616094F062FE206000284A
:1047A0003FF449AD484509D0039BA0EB0900034401
:1047B0008044039306B1064407B10744D4E900914D
:1047C000A8EB090322338B42DAD845466168A8EB8F
:1047D000090301338B425DD89AF80130C1465E2B44
:1047E00014BF0423052309F8013B9AF801305E2B1E
:1047F00003D10AF1020309931D93D4E90081A9EBC7
:10480000080301338B4267D8CA4620220AF8012BDD
:10481000002150469AF0D8FB19F8013C052B05D130
:10482000049BDB0544BF042389F802304FF0FF3BB3
:104830004FF00008049B03F001031993049B03F05D
:1048400004031A931D9B069A934294D0079A591C0D
:1048500018781D9102B1105C199A002A60D05C286A
:104860005ED1069A91423FF485AE9A1C93F801B04E
:10487000079B1D920BB113F80BB001214FEADB022D
:104880000BF0070301FA03F31AF802100B430AF8BE
:104890000230D7E7B1F5803F3FF4C8AD4900B1F52C
:1048A000803F28BF4FF480314846616094F0D8FDC6
:1048B000206000283FF4BFAC48450BD0039BA0EB21
:1048C00009094B44C844039306B14E4405B14D4415
:1048D00007B14F44814679E7B1F5803F3FF4A6AD7B
:1048E0004900B1F5803F28BF4FF4803140466160F8
:1048F00094F0B6FD206000283FF49DAC40453FF4A5
:104900007CAF039BA0EB080003448144039306B1F2
:10491000064405B10544002F3FF46FAF07446CE730
:104920005D280ED1099A0132914241D099F80030A8
:1049300023B119F80320002A00F0B3820AEB030820
:1049400052E5B8F1000F09D02D2831D15A785D2AEF
:1049500006D0059894F0A2FD0B206DE42D2827D1F8
:10496000DDF82CC05A1E944503D813F8012C5B2A9D
:104970001ED0DDF82CC09A1E944507D813F8022CDF
:104980005B2A03D113F8012C5E2A11D05A785D2AD4
:104990000ED05846049BCDF804A01DA90093DDE974
:1049A0000623FDF7B1FF0028D3D14FF0FF3B49E7C5
:1049B00093F801E0BEF12D0F11D193F802C0BCF1C4
:1049C0005D0F0CD0069A914201F0108002331D93C6
:1049D000049BCDF804A000931DA9079BE1E71A9A58
:1049E000002A00F059825B2840F05682BEF13A0F4F
:1049F00040F06881069A914200F0F88703F10208BE
:104A00009045CDF874803FF4B6AE002296464346FA
:104A1000079813F8011B00B1415C3A2904D193F8BF
:104A200000C0BCF15D0F11D0069883420ED0052A5C
:104A30009FBF02F1010CF8326A4402F8801C9846CC
:104A400094BF5FFA8CF28DF878E0E0E74FF0000C4D
:104A500002F1F80068443A291D9300F880CC40F038
:104A6000F98098F801105D2940F0F48088491EA86B
:104A70001B939BF0DFF8874910901EA89BF0DAF893
:104A8000854911901EA89BF0D5F8844912901EA864
:104A90009BF0D0F8824913901EA89BF0CBF8814977
:104AA00014901EA89BF0C6F87F4915901EA89BF095
:104AB000C1F87E490E901EA89BF0BCF87C49169068
:104AC0001EA89BF0B7F87B4917901EA89BF0B2F880
:104AD000794918901EA89BF0ADF878490F901EA850
:104AE0009BF0A8F8119902461B9BD1B10F99C1B157
:104AF0000E99B1B11499A1B1109991B188B11899D9
:104B000079B1169969B1179959B1159949B11399A4
:104B100039B1129929B1059894F0C0FC0420FFF72F
:104B20008BBB06998B4200F0618708F102038B4230
:104B30001D933FF420AE00214FF0010C604B109804
:104B400010B95878400711D1119810B958788007DA
:104B50000CD1129828B993F90100002806DB092925
:104B600004D0139870B9587880060BD5C1F3C40EE1
:104B70001AF80E8001F007000CFA00F040EA080075
:104B80000AF80E00149810B95878400712D41598F6
:104B900018B9587810F0170F0CD10E9820B9587822
:104BA00000F00300022805D0169878B9587810F064
:104BB000970F0BD0C1F3C40E1AF80E8001F0070056
:104BC0000CFA00F040EA08000AF80E00179810B935
:104BD0005878C00610D4189810B9587800070BD42C
:104BE0000F9820B9587800F00300012804D07AB952
:104BF000587810F0440F0BD0C1F3C40E1AF80E8091
:104C000001F007000CFA00F040EA08000AF80E0074
:104C10000798A8B10F9808B10E9888B9587800F095
:104C20000300013801280BD8C1F3C40E1AF80E8016
:104C300001F007000CFA00F040EA08000AF80E0044
:104C40000131B1F5807F03F101037FF478AF4FF0BC
:104C50000108F7E50132D2B2114600200139C9B28C
:104C6000FF2913D108B19B1A1D934FF03A0B99F805
:104C70000C3043F0080389F80C3099F8083043F001
:104C8000040389F808304FF00008DBE50120E5E770
:104C9000F1E10A10F7E10A10FDE10A1003E20A103F
:104CA0002EE20A1009E20A100FE20A1015E20A10B9
:104CB0001BE20A1021E20A1027E20A102DE20A1074
:104CC000F8C90C10BEF13D0F71D1069A914200F067
:104CD0008D86023393421D933FF44DAD4FF0000893
:104CE00019460798C64611F8012B00B1825C3D2A8F
:104CF00023D191F800C0BCF15D0F1ED1BEF1000FB1
:104D000002D00D988DF878004FF0000C08F1F800F3
:104D100068443D2A1D9100F880CC2BD15A785D2A39
:104D200028D19DF878202AB3B8F1000F11D1059849
:104D300094F0B4FB0320FFF77FBA06988142DDD0E0
:104D4000B8F1000F18BF00220B464FF001080D927A
:104D5000C6E70698814200F0498602331D93D308C6
:104D60001AF8031002F0070208FA02F20A430AF8DE
:104D7000032067E508F1010842460023013AD2B258
:104D8000FF2A12D113B1A1EB08011D9199F80C3043
:104D90004FF03D0B43F0080389F80C3099F80830C8
:104DA00043F0200389F808306DE70123E6E7BEF100
:104DB0002E0F71D1069A914200F018860233934269
:104DC0001D933FF4D8AC00218C461A46079812F880
:104DD000018B08B110F80880B8F12E0F04D192F8B9
:104DE00000E0BEF15D0F13D00698824210D0080695
:104DF0005FBF01F1F8036B4401F1010E03F8808CF1
:104E000058BF5FFA8EF1134648BF8DF878C0DCE7D3
:104E10004FF0000E01F1F8000DEB000CB8F12E0F71
:104E20001D920CF880EC1BD158785D2818D19DF8A4
:104E30007800A8B101297FF47AAFDDF818C0624587
:104E400000F0D48502331D93C20800F0070301FA75
:104E500003F31AF8021083460B430AF8023012E7F4
:104E60004B1CDBB2194600200139C9B2FF2911D110
:104E700008B1D31A1D9399F80C304FF02E0B43F064
:104E8000080389F80C3099F8063043F0400389F89C
:104E90000630F8E60120E7E70121C20800F0070329
:104EA000D5E703F1FF3889F800803FE5049B9B04B8
:104EB0007FF5EDA9A369089A0133A3610A9B013329
:104EC0000A930C9B93420CD128210C9B05985943C3
:104ED00094F0C6FA059000283FF4ADA90C9B5B0046
:104EE0000C931422089B25685A430399059B059847
:104EF000491B134481500EB1761B01360A99A8EB69
:104F00000502FF295E60DA60196113D802329A60E7
:104F10006168A8EB050303338B4200F2EE800623A1
:104F200088F800300A9B08F1030808F8023C0023C7
:104F300008F8013C0026089B354601330893CDF85C
:104F40000C80FFF7B9BB049B98047FF5A0A9C6B1FC
:104F5000D4E90091A8EB090301338B4200F2F780FA
:104F600043461422A8EB0608A8F1030803F8012B16
:104F70000E2286F801804FEA282886F8028098469B
:104F80003270089B002B40F03785049B980340F15A
:104F9000D8804FF0290BFFF77AB9049B13F4006F08
:104FA0003FF475A9049B59053FF571A982E0049B64
:104FB00003F49053B3F5905F40F09482069B099AF6
:104FC000934200F04E854FF0FF3A0A21079812F8FD
:104FD000013B00B1C35CA3F13000092840F25481C9
:104FE0002C2B1D9240F0398500204FF0FF390A210B
:104FF000DDF818C0624540F05881002800F05F815C
:1050000062465BE1069A0AF1010393423FF4B2AAB9
:105010009AF801B00AF10203BBF1420F09931D9304
:1050200024D8BBF1260F32D9ABF127031B2B2ED886
:10503000DFE813F0AE035E007D002D0031042D008B
:105040002D002D002D002D00DE03DE03DE03DE0328
:10505000DE03DE03DE03DE03DE032D002D00BE02D1
:105060002D00EE0231042D002D004E03BBF1770F11
:1050700000F03C8213D8BBF1600F00F05983BBF104
:10508000620F00F0F582BBF1570F00F06082079BC2
:10509000002B3FF4FCA813F80BB0FFF7F8B8BBF1F6
:1050A0007B0F00F0E780BBF17C0FF0D1049B13F481
:1050B000044FECD1D4E90091A8EB090303338B42F0
:1050C00000F28C80039B0F20A8EB03020399434658
:1050D0000332FDF70DFC08F103083EB10E22A8EBE8
:1050E0000603033B73701B123270B3704646B3E085
:1050F000049B99047FF5DEAEC9E7B1F5803F3FF42C
:1051000095A94900B1F5803F28BF4FF4803128466A
:10511000616094F0A5F9206000283FF48CA8A842B3
:1051200003D0451BA84407B12F440546F0E6049B75
:105130009A04ACD4089B002B40F05B84049B9B0337
:10514000A5D4059894F0AAF91020FFF775B8B1F529
:10515000803F3FF46BA94900B1F5803F28BF4FF471
:1051600080314846616094F07BF9206000283FF46C
:1051700062A848453FF4ECAE039BA0EB0900034452
:105180008044039306B1064405B10544002F3FF463
:10519000DFAE0744DCE6B1F5803F3FF447A94900A4
:1051A000B1F5803F28BF4FF480315046616094F0E4
:1051B00057F9206000283FF43EA8504500F03C8499
:1051C000039BA0EB0A0003448044039306B106440A
:1051D000002D00F03184054400F02EBCB1F5803F75
:1051E0003FF424A94900B1F5803F28BF4FF4803136
:1051F0004846616094F034F9206000283FF41BA811
:1052000048453FF457AF039BA0EB0900034480449B
:10521000039306B1064405B10544002F3FF44AAF9D
:10522000074447E7B1F5803F3FF400A94900B1F5D5
:10523000803F28BF4FF480313846616094F010F908
:10524000206000283EF4F7AFB84205D0C01B804470
:1052500006B1064405B10544D4E90071A8EB070383
:1052600003338B42DED808F103080025CDF80C800B
:10527000FEF7F7BF049B03F49053B3F5007F3FF4B0
:105280009DAE4FF07B0B02E7BAF5004FBCBF2AEA98
:10529000EA7A1AFB013A0698B8BFAAF1300A8242AC
:1052A0007FF494AE1D90D14616E0079812F8013BAA
:1052B00000B1C35CA3F13000092836D91D9247F62E
:1052C000FF72B9F1FF3F08BF9146BAF1FF3F00F00E
:1052D000C883D145C0F2C583049AD2040DD45C2B97
:1052E00040F0BF831D9B069A934200F0BA835A1C7C
:1052F0001D92079A1B7802B1D35C7D2B40F0B183DD
:1053000055B9049B03F02013202B3FF40DA9049BF7
:10531000D80640F1E1804546B9F5004F12DB05980B
:1053200094F0BCF80A20FEF787BFB9F5004FBCBF68
:1053300029EAE97919FB01394FF00100B8BFA9F159
:10534000300955E6B9F1000F00F08280B9F1010F84
:105350000CBF0A231423C346D4E90081ABEB080237
:105360001A448A4200F28680B9F1010F0CBF05236E
:105370000A235A465B445B1B033B0BF10501954234
:1053800040F09E8015226B701B12AB705FFA8AF39F
:10539000CAF3072A2A70EB7085F804A00BF10A08FB
:1053A0008D4240F09180172200272A700522B9F122
:1053B000010F6A70AF70EB7085F804A03FF414A879
:1053C0001623A5EB080808F1020809F1FF395FFA76
:1053D00089F18BF80A308BF80B80C9F307294FEA63
:1053E00028280BF10F038BF80C808BF80D108BF82D
:1053F0000E905A1B0BF114089D4269D117232B7094
:1054000013126A70AB70E97085F80490FFF754B915
:10541000B1F5803F3FF40AA84900B1F5803F28BFAD
:105420004FF480314846616094F01AF820600028FB
:105430003EF401AF48450BD0039BA0EB09000344A9
:105440008044039306B1064405B1054407B10744FF
:10545000D4E90091A8EB090303338B42D8D8434623
:1054600029460D2008F103075A1BFDF741FAB846FB
:10547000FFF722B9B1F5803F09933EF4D7AF490059
:10548000B1F5803F28BF4FF480314046616093F012
:10549000E7FF206000283EF4CEAE4045099B3FF474
:1054A0005BAF039AA0EB080002448344039206B169
:1054B000064405B10544002F3FF44EAF07444BE7C7
:1054C00012F8010D50715AE711F8012D4A7167E782
:1054D00013F8010D58718FE7099B1D93049BDA04A3
:1054E0007FF5CFAE4FF07B0BFEF7D1BE049B1B03C5
:1054F0003EF5CDAE4546D4E90091A8EB0903013352
:105500008B4202D81823FEF76DBFB1F5803F3EF401
:105510008DAF4900B1F5803F28BF4FF48031484638
:10552000616093F09DFF206000283EF484AE484502
:10553000E1D0039BA0EB090003448044039306B130
:10554000064405B10544002FD5D00744D3E7049B9A
:1055500018033EF59CAE4546D4E90091A8EB09033B
:1055600001338B4202D81923FEF73CBFB1F5803FCF
:105570003EF45CAF4900B1F5803F28BF4FF4803165
:105580004846616093F06CFF206000283EF453AE03
:105590004845E1D0039BA0EB0900034480440393FA
:1055A00006B1064405B10544002FD5D00744D3E722
:1055B000049B19033EF56BAED4E90091A8EB0903F7
:1055C00001338B4202D81A23FEF70CBFB1F5803F9E
:1055D0003EF42CAF4900B1F5803F28BF4FF4803135
:1055E0004846616093F03CFF206000283EF423AE03
:1055F0004845E1D0039BA0EB09000344804403939A
:1056000006B1064405B10544002FD5D00744D3E7C1
:10561000049B1A033EF53BAED4E90091A8EB0903C5
:1056200001338B4202D81B23FEF7DCBEB1F5803F6D
:105630003EF4FCAE4900B1F5803F28BF4FF4803105
:105640004846616093F00CFF206000283EF4F3AD03
:105650004845E1D0039BA0EB090003448044039339
:1056600006B1064405B10544002FD5D00744D3E761
:10567000049B1B033EF50BAED4E90091A8EB090394
:1056800001338B4202D81C23FEF7ACBEB1F5803F3C
:105690003EF4CCAE4900B1F5803F28BF4FF48031D5
:1056A0004846616093F0DCFE206000283EF4C3AD04
:1056B0004845E1D0039BA0EB0900034480440393D9
:1056C00006B1064405B10544002FD5D00744D3E701
:1056D000049B18033EF5DBADD4E90091A8EB090368
:1056E00001338B4202D81D23FEF77CBEB1F5803F0B
:1056F0003EF49CAE4900B1F5803F28BF4FF48031A5
:105700004846616093F0ACFE206000283EF493AD03
:105710004845E1D0039BA0EB090003448044039378
:1057200006B1064405B10544002FD5D00744D3E7A0
:10573000049B19033EF5ABADD4E90091A8EB090336
:1057400001338B4202D80B23FEF74CBEB1F5803FEC
:105750003EF46CAE4900B1F5803F28BF4FF4803174
:105760004846616093F07CFE206000283EF463AD03
:105770004845E1D0039BA0EB090003448044039318
:1057800006B1064405B10544002FD5D00744D3E740
:10579000049B1A033EF57BADD4E90091A8EB090305
:1057A00001338B4202D80C23FEF71CBEB1F5803FBB
:1057B0003EF43CAE4900B1F5803F28BF4FF4803144
:1057C0004846616093F04CFE206000283EF433AD03
:1057D0004845E1D0039BA0EB0900034480440393B8
:1057E00006B1064405B10544002FD5D00744D3E7E0
:1057F000049B5B043EF54BAD0A9BABF130095FFAAD
:1058000089F9994505D9059893F048FE0620FEF7D9
:1058100013BD1421089B059A013B1032002B10DAAE
:105820004546D4E900A1A8EB0A0302338B4210D805
:105830004346082203F8022B88F801909846FEF7A9
:10584000D3BD01FB03F0105881453EF420AD013B70
:10585000E4E7B1F5803F3EF4E9AD4900B1F5803FA2
:1058600028BF4FF480315046616093F0F9FD20600D
:1058700000283EF4E0AC5045D3D0039BA0EB0A00D7
:1058800003448044039306B1064405B10544002F48
:10589000C7D00744C5E7049B98073EF54BADFFF71B
:1058A000F6BB5E2B3EF400AD049989071ED55C2B38
:1058B00006D151782B293EF4F7AC3F293EF4F4ACE5
:1058C0000499880504D5C90415D57B2B3EF4ECACAE
:1058D000D4E90091A8EB090301338B4234D808F8CE
:1058E00001BB3B7801333B70FEF77EBD2B2B3EF4B2
:1058F000DBAC3F2BE2E75C2BEAD15378E5E7B1F56F
:10590000803F3EF493AD4900B1F5803F28BF4FF48E
:1059100080314846616093F0A3FD206000283EF48A
:105920008AAC48453EF4C1AC039BA0EB090003449C
:105930008044039306B1064405B10544002F3EF4AC
:10594000B4AC0744FEF7B1BCB1F5803F3EF46EAD98
:105950004900B1F5803F28BF4FF48031484661606F
:1059600093F07EFD206000283EF465AC4845AFD042
:10597000039BA0EB090003448044039306B1064453
:1059800005B10544002FA3D00744A1E7049B5B03A6
:1059900021D4059893F082FD23680020A8EB03032F
:1059A000A360FEF749BCB1F5803F3EF43FAD49002E
:1059B000B1F5803F28BF4FF480312846616093F0F5
:1059C0004FFD206000283EF436ACA84203D0401BB7
:1059D000804407B10744D4E90051A8EB0503013323
:1059E0008B42E0D8012308F8013BD2E70E20FEF7F6
:1059F00023BC002E7FF4ACAA1421089B0598013B20
:105A00000893089A23685143059A0A4441585668F6
:105A1000591803910EB1013E1E441769D568FF2F36
:105A20001D443EF649AE0A99FFB29268A1EB070900
:105A30005FFA89F903F80290D4E900A1A8EB0A0300
:105A400003338B423FF6A7AB072388F8017088F831
:105A5000003088F80290FEF75BBEBAF1FF3F7FF49A
:105A600022AC049B99023FF537AD059893F016FDE3
:105A70001D9B069A93427FF455AC0920FEF7DCBBD0
:105A800010B586B0049200920022099C0394089CF1
:105A9000CDE901340B461146FEF7DEFA06B010BD23
:105AA0002DE9F0414FF00008324B12F0010F04468F
:105AB0001746C0E90088C0F808804FF480700E4691
:105AC0002D4D18BF1D4693F0AFFC17F00203206167
:105AD00049D04FF4807093F0A7FC6061002846D055
